S0100000626C696E6B4C65642E73726563EF
S113A00000E8FF1F61A10000AFA10000BBA1000098
S113A010000000000000000000000000000000003C
S113A02000000000000000000000000061A2000029
S113A030000000000000000063A2000065A2000010
S113A040F9A1000001A2000009A2000011A2000071
S113A05059A2000059A2000059A2000059A2000010
S113A06019A2000021A2000029A2000031A20000D0
S113A07039A2000041A2000049A2000059A2000038
S113A08059A2000059A2000059A2000059A20000E0
S113A09059A2000059A2000059A2000051A20000D8
S113A0A059A2000059A2000059A2000059A20000C0
S113A0B059A2000059A2000059A2000059A20000B0
S113A0C080B500F00EF800F02DF81B4801688022DE
S113A0D092050A4302601948016820220A4302607B
S113A0E0F1E717480168C02292010A430260802008
S113A0F040001449086080218905134A13680B4302
S113A1001360124A13681943116011490860202032
S113A11010490A6802430A600F490A68104308603C
S113A1207047000000B5002001E000BF401C0B494F
S113A1308842FAD300BD00000C0100F8CC0000F8FE
S113A1403880044074D00440140100F8040100F87D
S113A15014C00440D40000F8C40000F840420F00CA
S113A16072B60448044901600448804762B6044852
S113A1700047000008ED00E000A00000EDA1000091
S113A180D1A1000000F00DF8002801D000BF00BFED
S113A19000BF00BF002000BF00BFFFF791FF00F029
S113A1A002F80120704780B500F002F801BDFEE717
S113A1B00746384600F002F8FBE7FEE780B500BF2B
S113A1C000BF024A11001820ABBEFBE726000200C4
S113A1D00548014603B4684680F3098800BF00BF00
S113A1E000BF00BFFFF7CEFFA5EDF5FE002001493B
S113A1F008607047008104400048004759A20000ED
S113A2000048004759A200000048004759A2000036
S113A2100048004759A200000048004759A2000026
S113A2200048004759A200000048004759A2000016
S113A2300048004759A200000048004759A2000006
S113A2400048004759A200000048004759A20000F6
S113A2500048004759A200000048004759A20000E6
S109A260FEE7FEE7FEE745
S113A400FFFFFFFFFFFFFFFFFFFFFFFFFEFFFFFF59
S903A1D18A
